{
  "_format": "hh-sol-artifact-1",
  "contractName": "SaveERC20",
  "sourceName": "contracts/SaveERC20.sol",
  "abi": [
    {
      "inputs": [
        {
          "internalType": "address",
          "name": "_tokenAddress",
          "type": "address"
        }
      ],
      "stateMutability": "nonpayable",
      "type": "constructor"
    },
    {
      "anonymous": false,
      "inputs": [
        {
          "indexed": true,
          "internalType": "address",
          "name": "user",
          "type": "address"
        },
        {
          "indexed": true,
          "internalType": "uint256",
          "name": "amount",
          "type": "uint256"
        }
      ],
      "name": "trnasferSuccessful",
      "type": "event"
    },
    {
      "anonymous": false,
      "inputs": [
        {
          "indexed": true,
          "internalType": "address",
          "name": "user",
          "type": "address"
        },
        {
          "indexed": true,
          "internalType": "uint256",
          "name": "amount",
          "type": "uint256"
        }
      ],
      "name": "withdrawSuccessful",
      "type": "event"
    },
    {
      "inputs": [
        {
          "internalType": "uint256",
          "name": "_amount",
          "type": "uint256"
        }
      ],
      "name": "deposit",
      "outputs": [],
      "stateMutability": "nonpayable",
      "type": "function"
    },
    {
      "inputs": [
        {
          "internalType": "uint256",
          "name": "_amount",
          "type": "uint256"
        },
        {
          "internalType": "address",
          "name": "_user",
          "type": "address"
        }
      ],
      "name": "depositForAnotherUser",
      "outputs": [],
      "stateMutability": "nonpayable",
      "type": "function"
    },
    {
      "inputs": [
        {
          "internalType": "address",
          "name": "_user",
          "type": "address"
        }
      ],
      "name": "getAnyBalance",
      "outputs": [
        {
          "internalType": "uint256",
          "name": "",
          "type": "uint256"
        }
      ],
      "stateMutability": "view",
      "type": "function"
    },
    {
      "inputs": [],
      "name": "getContractBalance",
      "outputs": [
        {
          "internalType": "uint256",
          "name": "",
          "type": "uint256"
        }
      ],
      "stateMutability": "view",
      "type": "function"
    },
    {
      "inputs": [],
      "name": "myBalance",
      "outputs": [
        {
          "internalType": "uint256",
          "name": "",
          "type": "uint256"
        }
      ],
      "stateMutability": "view",
      "type": "function"
    },
    {
      "inputs": [
        {
          "internalType": "uint256",
          "name": "_amount",
          "type": "uint256"
        }
      ],
      "name": "ownerWihdraw",
      "outputs": [],
      "stateMutability": "nonpayable",
      "type": "function"
    },
    {
      "inputs": [
        {
          "internalType": "uint256",
          "name": "_amount",
          "type": "uint256"
        },
        {
          "internalType": "address",
          "name": "_to",
          "type": "address"
        }
      ],
      "name": "transferFunds",
      "outputs": [],
      "stateMutability": "nonpayable",
      "type": "function"
    },
    {
      "inputs": [
        {
          "internalType": "uint256",
          "name": "_amount",
          "type": "uint256"
        }
      ],
      "name": "withdraw",
      "outputs": [],
      "stateMutability": "nonpayable",
      "type": "function"
    }
  ],
  "bytecode": "0x60806040523480156200001157600080fd5b506040516200163738038062001637833981810160405281019062000037919062000129565b336000806101000a81548173ffffffffffffffffffffffffffffffffffffffff021916908373ffffffffffffffffffffffffffffffffffffffff16021790555080600160006101000a81548173ffffffffffffffffffffffffffffffffffffffff021916908373ffffffffffffffffffffffffffffffffffffffff160217905550506200015b565b600080fd5b600073ffffffffffffffffffffffffffffffffffffffff82169050919050565b6000620000f182620000c4565b9050919050565b6200010381620000e4565b81146200010f57600080fd5b50565b6000815190506200012381620000f8565b92915050565b600060208284031215620001425762000141620000bf565b5b6000620001528482850162000112565b91505092915050565b6114cc806200016b6000396000f3fe608060405234801561001057600080fd5b50600436106100885760003560e01c80636f9fb98a1161005b5780636f9fb98a14610111578063b6b55f251461012f578063c9116b691461014b578063f08e362f1461016957610088565b80631815117e1461008d578063295b7cfe146100a95780632e1a7d4d146100c55780632e9ad467146100e1575b600080fd5b6100a760048036038101906100a29190610f7f565b610185565b005b6100c360048036038101906100be919061100a565b610327565b005b6100df60048036038101906100da9190610f7f565b6105ed565b005b6100fb60048036038101906100f6919061104a565b610829565b6040516101089190611086565b60405180910390f35b6101196108ca565b6040516101269190611086565b60405180910390f35b61014960048036038101906101449190610f7f565b6109c5565b005b610153610c95565b6040516101609190611086565b60405180910390f35b610183600480360381019061017e919061100a565b610cdc565b005b80600160009054906101000a900473ffffffffffffffffffffffffffffffffffffffff1673ffffffffffffffffffffffffffffffffffffffff166370a08231306040518263ffffffff1660e01b81526004016101e191906110b0565b602060405180830381865afa1580156101fe573d6000803e3d6000fd5b505050506040513d601f19601f8201168201806040525081019061022291906110e0565b1015610263576040517f08c379a000000000000000000000000000000000000000000000000000000000815260040161025a9061116a565b60405180910390fd5b600160009054906101000a900473ffffffffffffffffffffffffffffffffffffffff1673ffffffffffffffffffffffffffffffffffffffff1663a9059cbb60008054906101000a900473ffffffffffffffffffffffffffffffffffffffff16836040518363ffffffff1660e01b81526004016102e092919061118a565b6020604051808303816000875af11580156102ff573d6000803e3d6000fd5b505050506040513d601f19601f8201168201806040525081019061032391906111eb565b5050565b600073ffffffffffffffffffffffffffffffffffffffff163373ffffffffffffffffffffffffffffffffffffffff1603610396576040517f08c379a000000000000000000000000000000000000000000000000000000000815260040161038d90611264565b60405180910390fd5b600073ffffffffffffffffffffffffffffffffffffffff168173ffffffffffffffffffffffffffffffffffffffff1603610405576040517f08c379a00000000000000000000000000000000000000000000000000000000081526004016103fc90611264565b60405180910390fd5b60008211610448576040517f08c379a000000000000000000000000000000000000000000000000000000000815260040161043f906112d0565b60405180910390fd5b81600160009054906101000a900473ffffffffffffffffffffffffffffffffffffffff1673ffffffffffffffffffffffffffffffffffffffff166370a08231336040518263ffffffff1660e01b81526004016104a491906110b0565b602060405180830381865afa1580156104c1573d6000803e3d6000fd5b505050506040513d601f19601f820116820180604052508101906104e591906110e0565b10156104f057600080fd5b600160009054906101000a900473ffffffffffffffffffffffffffffffffffffffff1673ffffffffffffffffffffffffffffffffffffffff166323b872dd3330856040518463ffffffff1660e01b815260040161054f939291906112f0565b6020604051808303816000875af115801561056e573d6000803e3d6000fd5b505050506040513d601f19601f8201168201806040525081019061059291906111eb565b5081600260008373ffffffffffffffffffffffffffffffffffffffff1673ffffffffffffffffffffffffffffffffffffffff16815260200190815260200160002060008282546105e29190611356565b925050819055505050565b600073ffffffffffffffffffffffffffffffffffffffff163373ffffffffffffffffffffffffffffffffffffffff160361065c576040517f08c379a000000000000000000000000000000000000000000000000000000000815260040161065390611264565b60405180910390fd5b6000811161069f576040517f08c379a0000000000000000000000000000000000000000000000000000000008152600401610696906113d6565b60405180910390fd5b80600260003373ffffffffffffffffffffffffffffffffffffffff1673ffffffffffffffffffffffffffffffffffffffff1681526020019081526020016000205410156106eb57600080fd5b80600260003373ffffffffffffffffffffffffffffffffffffffff1673ffffffffffffffffffffffffffffffffffffffff168152602001908152602001600020600082825461073a91906113f6565b92505081905550600160009054906101000a900473ffffffffffffffffffffffffffffffffffffffff1673ffffffffffffffffffffffffffffffffffffffff1663a9059cbb33836040518363ffffffff1660e01b815260040161079e92919061118a565b6020604051808303816000875af11580156107bd573d6000803e3d6000fd5b505050506040513d601f19601f820116820180604052508101906107e191906111eb565b50803373ffffffffffffffffffffffffffffffffffffffff167f37de38ee9a9caf9879c2a0b08382797fa0ed8f24ec7e9cf1028cd3b018ec95a560405160405180910390a350565b60003373ffffffffffffffffffffffffffffffffffffffff1660008054906101000a900473ffffffffffffffffffffffffffffffffffffffff1673ffffffffffffffffffffffffffffffffffffffff161461088357600080fd5b600260008373ffffffffffffffffffffffffffffffffffffffff1673ffffffffffffffffffffffffffffffffffffffff168152602001908152602001600020549050919050565b60003373ffffffffffffffffffffffffffffffffffffffff1660008054906101000a900473ffffffffffffffffffffffffffffffffffffffff1673ffffffffffffffffffffffffffffffffffffffff161461092457600080fd5b600160009054906101000a900473ffffffffffffffffffffffffffffffffffffffff1673ffffffffffffffffffffffffffffffffffffffff166370a08231306040518263ffffffff1660e01b815260040161097f91906110b0565b602060405180830381865afa15801561099c573d6000803e3d6000fd5b505050506040513d601f19601f820116820180604052508101906109c091906110e0565b905090565b600073ffffffffffffffffffffffffffffffffffffffff163373ffffffffffffffffffffffffffffffffffffffff1603610a34576040517f08c379a0000000000000000000000000000000000000000000000000000000008152600401610a2b90611264565b60405180910390fd5b60008111610a77576040517f08c379a0000000000000000000000000000000000000000000000000000000008152600401610a6e906113d6565b60405180910390fd5b80600160009054906101000a900473ffffffffffffffffffffffffffffffffffffffff1673ffffffffffffffffffffffffffffffffffffffff166370a08231336040518263ffffffff1660e01b8152600401610ad391906110b0565b602060405180830381865afa158015610af0573d6000803e3d6000fd5b505050506040513d601f19601f82011682018060405250810190610b1491906110e0565b1015610b55576040517f08c379a0000000000000000000000000000000000000000000000000000000008152600401610b4c90611476565b60405180910390fd5b600160009054906101000a900473ffffffffffffffffffffffffffffffffffffffff1673ffffffffffffffffffffffffffffffffffffffff166323b872dd3330846040518463ffffffff1660e01b8152600401610bb4939291906112f0565b6020604051808303816000875af1158015610bd3573d6000803e3d6000fd5b505050506040513d601f19601f82011682018060405250810190610bf791906111eb565b5080600260003373ffffffffffffffffffffffffffffffffffffffff1673ffffffffffffffffffffffffffffffffffffffff1681526020019081526020016000206000828254610c479190611356565b92505081905550803373ffffffffffffffffffffffffffffffffffffffff167f903dec4ce62580f8c8250edf8128cf63c5485817361ea2a305523580f30ec64560405160405180910390a350565b6000600260003373ffffffffffffffffffffffffffffffffffffffff1673ffffffffffffffffffffffffffffffffffffffff16815260200190815260200160002054905090565b600073ffffffffffffffffffffffffffffffffffffffff163373ffffffffffffffffffffffffffffffffffffffff1603610d4b576040517f08c379a0000000000000000000000000000000000000000000000000000000008152600401610d4290611264565b60405180910390fd5b600073ffffffffffffffffffffffffffffffffffffffff168173ffffffffffffffffffffffffffffffffffffffff1603610dba576040517f08c379a0000000000000000000000000000000000000000000000000000000008152600401610db190611264565b60405180910390fd5b60008211610dfd576040517f08c379a0000000000000000000000000000000000000000000000000000000008152600401610df4906112d0565b60405180910390fd5b81600260003373ffffffffffffffffffffffffffffffffffffffff1673ffffffffffffffffffffffffffffffffffffffff168152602001908152602001600020541015610e4957600080fd5b81600260003373ffffffffffffffffffffffffffffffffffffffff1673ffffffffffffffffffffffffffffffffffffffff1681526020019081526020016000206000828254610e9891906113f6565b92505081905550600160009054906101000a900473ffffffffffffffffffffffffffffffffffffffff1673ffffffffffffffffffffffffffffffffffffffff1663a9059cbb82846040518363ffffffff1660e01b8152600401610efc92919061118a565b6020604051808303816000875af1158015610f1b573d6000803e3d6000fd5b505050506040513d601f19601f82011682018060405250810190610f3f91906111eb565b505050565b600080fd5b6000819050919050565b610f5c81610f49565b8114610f6757600080fd5b50565b600081359050610f7981610f53565b92915050565b600060208284031215610f9557610f94610f44565b5b6000610fa384828501610f6a565b91505092915050565b600073ffffffffffffffffffffffffffffffffffffffff82169050919050565b6000610fd782610fac565b9050919050565b610fe781610fcc565b8114610ff257600080fd5b50565b60008135905061100481610fde565b92915050565b6000806040838503121561102157611020610f44565b5b600061102f85828601610f6a565b925050602061104085828601610ff5565b9150509250929050565b6000602082840312156110605761105f610f44565b5b600061106e84828501610ff5565b91505092915050565b61108081610f49565b82525050565b600060208201905061109b6000830184611077565b92915050565b6110aa81610fcc565b82525050565b60006020820190506110c560008301846110a1565b92915050565b6000815190506110da81610f53565b92915050565b6000602082840312156110f6576110f5610f44565b5b6000611104848285016110cb565b91505092915050565b600082825260208201905092915050565b7f496e7375666669656e7446756e64730000000000000000000000000000000000600082015250565b6000611154600f8361110d565b915061115f8261111e565b602082019050919050565b6000602082019050818103600083015261118381611147565b9050919050565b600060408201905061119f60008301856110a1565b6111ac6020830184611077565b9392505050565b60008115159050919050565b6111c8816111b3565b81146111d357600080fd5b50565b6000815190506111e5816111bf565b92915050565b60006020828403121561120157611200610f44565b5b600061120f848285016111d6565b91505092915050565b7f5a65726f20616464726573732064657465637465640000000000000000000000600082015250565b600061124e60158361110d565b915061125982611218565b602082019050919050565b6000602082019050818103600083015261127d81611241565b9050919050565b7f43616e2774207472616e73666572207a65726f00000000000000000000000000600082015250565b60006112ba60138361110d565b91506112c582611284565b602082019050919050565b600060208201905081810360008301526112e9816112ad565b9050919050565b600060608201905061130560008301866110a1565b61131260208301856110a1565b61131f6040830184611077565b949350505050565b7f4e487b7100000000000000000000000000000000000000000000000000000000600052601160045260246000fd5b600061136182610f49565b915061136c83610f49565b925082820190508082111561138457611383611327565b5b92915050565b7f43616e2774206465706f736974207a65726f0000000000000000000000000000600082015250565b60006113c060128361110d565b91506113cb8261138a565b602082019050919050565b600060208201905081810360008301526113ef816113b3565b9050919050565b600061140182610f49565b915061140c83610f49565b925082820390508181111561142457611423611327565b5b92915050565b7f496e73756666696365696e742042616c616e6365000000000000000000000000600082015250565b600061146060148361110d565b915061146b8261142a565b602082019050919050565b6000602082019050818103600083015261148f81611453565b905091905056fea2646970667358221220e47a02340d2e888544b55817824fa59672229c9957598a7324a82b70fc5a141064736f6c63430008180033",
  "linkReferences": {},
  "deployedLinkReferences": {}
}